{
  "_format": "hh-sol-artifact-1",
  "contractName": "Fractls",
  "sourceName": "contracts/Fractls.sol",
  "abi": [
    {
      "inputs": [],
      "stateMutability": "nonpayable",
      "type": "constructor"
    },
    {
      "inputs": [
        {
          "internalType": "address",
          "name": "sender",
          "type": "address"
        },
        {
          "internalType": "uint256",
          "name": "tokenId",
          "type": "uint256"
        },
        {
          "internalType": "address",
          "name": "owner",
          "type": "address"
        }
      ],
      "name": "ERC721IncorrectOwner",
      "type": "error"
    },
    {
      "inputs": [
        {
          "internalType": "address",
          "name": "operator",
          "type": "address"
        },
        {
          "internalType": "uint256",
          "name": "tokenId",
          "type": "uint256"
        }
      ],
      "name": "ERC721InsufficientApproval",
      "type": "error"
    },
    {
      "inputs": [
        {
          "internalType": "address",
          "name": "approver",
          "type": "address"
        }
      ],
      "name": "ERC721InvalidApprover",
      "type": "error"
    },
    {
      "inputs": [
        {
          "internalType": "address",
          "name": "operator",
          "type": "address"
        }
      ],
      "name": "ERC721InvalidOperator",
      "type": "error"
    },
    {
      "inputs": [
        {
          "internalType": "address",
          "name": "owner",
          "type": "address"
        }
      ],
      "name": "ERC721InvalidOwner",
      "type": "error"
    },
    {
      "inputs": [
        {
          "internalType": "address",
          "name": "receiver",
          "type": "address"
        }
      ],
      "name": "ERC721InvalidReceiver",
      "type": "error"
    },
    {
      "inputs": [
        {
          "internalType": "address",
          "name": "sender",
          "type": "address"
        }
      ],
      "name": "ERC721InvalidSender",
      "type": "error"
    },
    {
      "inputs": [
        {
          "internalType": "uint256",
          "name": "tokenId",
          "type": "uint256"
        }
      ],
      "name": "ERC721NonexistentToken",
      "type": "error"
    },
    {
      "inputs": [
        {
          "internalType": "address",
          "name": "owner",
          "type": "address"
        }
      ],
      "name": "OwnableInvalidOwner",
      "type": "error"
    },
    {
      "inputs": [
        {
          "internalType": "address",
          "name": "account",
          "type": "address"
        }
      ],
      "name": "OwnableUnauthorizedAccount",
      "type": "error"
    },
    {
      "anonymous": false,
      "inputs": [
        {
          "indexed": true,
          "internalType": "address",
          "name": "owner",
          "type": "address"
        },
        {
          "indexed": true,
          "internalType": "address",
          "name": "approved",
          "type": "address"
        },
        {
          "indexed": true,
          "internalType": "uint256",
          "name": "tokenId",
          "type": "uint256"
        }
      ],
      "name": "Approval",
      "type": "event"
    },
    {
      "anonymous": false,
      "inputs": [
        {
          "indexed": true,
          "internalType": "address",
          "name": "owner",
          "type": "address"
        },
        {
          "indexed": true,
          "internalType": "address",
          "name": "operator",
          "type": "address"
        },
        {
          "indexed": false,
          "internalType": "bool",
          "name": "approved",
          "type": "bool"
        }
      ],
      "name": "ApprovalForAll",
      "type": "event"
    },
    {
      "anonymous": false,
      "inputs": [
        {
          "indexed": false,
          "internalType": "uint256",
          "name": "_fromTokenId",
          "type": "uint256"
        },
        {
          "indexed": false,
          "internalType": "uint256",
          "name": "_toTokenId",
          "type": "uint256"
        }
      ],
      "name": "BatchMetadataUpdate",
      "type": "event"
    },
    {
      "anonymous": false,
      "inputs": [
        {
          "indexed": false,
          "internalType": "uint256",
          "name": "_tokenId",
          "type": "uint256"
        }
      ],
      "name": "MetadataUpdate",
      "type": "event"
    },
    {
      "anonymous": false,
      "inputs": [
        {
          "indexed": true,
          "internalType": "address",
          "name": "previousOwner",
          "type": "address"
        },
        {
          "indexed": true,
          "internalType": "address",
          "name": "newOwner",
          "type": "address"
        }
      ],
      "name": "OwnershipTransferred",
      "type": "event"
    },
    {
      "anonymous": false,
      "inputs": [
        {
          "indexed": true,
          "internalType": "address",
          "name": "from",
          "type": "address"
        },
        {
          "indexed": true,
          "internalType": "address",
          "name": "to",
          "type": "address"
        },
        {
          "indexed": true,
          "internalType": "uint256",
          "name": "tokenId",
          "type": "uint256"
        }
      ],
      "name": "Transfer",
      "type": "event"
    },
    {
      "inputs": [],
      "name": "TOTAL_FRACTIONS",
      "outputs": [
        {
          "internalType": "uint256",
          "name": "",
          "type": "uint256"
        }
      ],
      "stateMutability": "view",
      "type": "function"
    },
    {
      "inputs": [
        {
          "internalType": "address",
          "name": "to",
          "type": "address"
        },
        {
          "internalType": "uint256",
          "name": "tokenId",
          "type": "uint256"
        }
      ],
      "name": "approve",
      "outputs": [],
      "stateMutability": "nonpayable",
      "type": "function"
    },
    {
      "inputs": [
        {
          "internalType": "address",
          "name": "owner",
          "type": "address"
        }
      ],
      "name": "balanceOf",
      "outputs": [
        {
          "internalType": "uint256",
          "name": "",
          "type": "uint256"
        }
      ],
      "stateMutability": "view",
      "type": "function"
    },
    {
      "inputs": [
        {
          "internalType": "uint256[]",
          "name": "fractionIds",
          "type": "uint256[]"
        }
      ],
      "name": "claimOriginal",
      "outputs": [],
      "stateMutability": "nonpayable",
      "type": "function"
    },
    {
      "inputs": [
        {
          "internalType": "string",
          "name": "originalTokenURI",
          "type": "string"
        },
        {
          "internalType": "string[]",
          "name": "fractionTokenURIs",
          "type": "string[]"
        }
      ],
      "name": "createCollectible",
      "outputs": [
        {
          "internalType": "uint256[]",
          "name": "",
          "type": "uint256[]"
        }
      ],
      "stateMutability": "nonpayable",
      "type": "function"
    },
    {
      "inputs": [
        {
          "internalType": "uint256",
          "name": "",
          "type": "uint256"
        }
      ],
      "name": "fractionsMinted",
      "outputs": [
        {
          "internalType": "bool",
          "name": "",
          "type": "bool"
        }
      ],
      "stateMutability": "view",
      "type": "function"
    },
    {
      "inputs": [
        {
          "internalType": "uint256",
          "name": "tokenId",
          "type": "uint256"
        }
      ],
      "name": "getApproved",
      "outputs": [
        {
          "internalType": "address",
          "name": "",
          "type": "address"
        }
      ],
      "stateMutability": "view",
      "type": "function"
    },
    {
      "inputs": [
        {
          "internalType": "address",
          "name": "owner",
          "type": "address"
        },
        {
          "internalType": "address",
          "name": "operator",
          "type": "address"
        }
      ],
      "name": "isApprovedForAll",
      "outputs": [
        {
          "internalType": "bool",
          "name": "",
          "type": "bool"
        }
      ],
      "stateMutability": "view",
      "type": "function"
    },
    {
      "inputs": [],
      "name": "name",
      "outputs": [
        {
          "internalType": "string",
          "name": "",
          "type": "string"
        }
      ],
      "stateMutability": "view",
      "type": "function"
    },
    {
      "inputs": [
        {
          "internalType": "uint256",
          "name": "",
          "type": "uint256"
        }
      ],
      "name": "originalToFractions",
      "outputs": [
        {
          "internalType": "uint256",
          "name": "",
          "type": "uint256"
        }
      ],
      "stateMutability": "view",
      "type": "function"
    },
    {
      "inputs": [],
      "name": "owner",
      "outputs": [
        {
          "internalType": "address",
          "name": "",
          "type": "address"
        }
      ],
      "stateMutability": "view",
      "type": "function"
    },
    {
      "inputs": [
        {
          "internalType": "uint256",
          "name": "tokenId",
          "type": "uint256"
        }
      ],
      "name": "ownerOf",
      "outputs": [
        {
          "internalType": "address",
          "name": "",
          "type": "address"
        }
      ],
      "stateMutability": "view",
      "type": "function"
    },
    {
      "inputs": [],
      "name": "renounceOwnership",
      "outputs": [],
      "stateMutability": "nonpayable",
      "type": "function"
    },
    {
      "inputs": [
        {
          "internalType": "address",
          "name": "from",
          "type": "address"
        },
        {
          "internalType": "address",
          "name": "to",
          "type": "address"
        },
        {
          "internalType": "uint256",
          "name": "tokenId",
          "type": "uint256"
        }
      ],
      "name": "safeTransferFrom",
      "outputs": [],
      "stateMutability": "nonpayable",
      "type": "function"
    },
    {
      "inputs": [
        {
          "internalType": "address",
          "name": "from",
          "type": "address"
        },
        {
          "internalType": "address",
          "name": "to",
          "type": "address"
        },
        {
          "internalType": "uint256",
          "name": "tokenId",
          "type": "uint256"
        },
        {
          "internalType": "bytes",
          "name": "data",
          "type": "bytes"
        }
      ],
      "name": "safeTransferFrom",
      "outputs": [],
      "stateMutability": "nonpayable",
      "type": "function"
    },
    {
      "inputs": [
        {
          "internalType": "address",
          "name": "operator",
          "type": "address"
        },
        {
          "internalType": "bool",
          "name": "approved",
          "type": "bool"
        }
      ],
      "name": "setApprovalForAll",
      "outputs": [],
      "stateMutability": "nonpayable",
      "type": "function"
    },
    {
      "inputs": [
        {
          "internalType": "bytes4",
          "name": "interfaceId",
          "type": "bytes4"
        }
      ],
      "name": "supportsInterface",
      "outputs": [
        {
          "internalType": "bool",
          "name": "",
          "type": "bool"
        }
      ],
      "stateMutability": "view",
      "type": "function"
    },
    {
      "inputs": [],
      "name": "symbol",
      "outputs": [
        {
          "internalType": "string",
          "name": "",
          "type": "string"
        }
      ],
      "stateMutability": "view",
      "type": "function"
    },
    {
      "inputs": [],
      "name": "tokenCounter",
      "outputs": [
        {
          "internalType": "uint256",
          "name": "",
          "type": "uint256"
        }
      ],
      "stateMutability": "view",
      "type": "function"
    },
    {
      "inputs": [
        {
          "internalType": "uint256",
          "name": "tokenId",
          "type": "uint256"
        }
      ],
      "name": "tokenURI",
      "outputs": [
        {
          "internalType": "string",
          "name": "",
          "type": "string"
        }
      ],
      "stateMutability": "view",
      "type": "function"
    },
    {
      "inputs": [
        {
          "internalType": "address",
          "name": "from",
          "type": "address"
        },
        {
          "internalType": "address",
          "name": "to",
          "type": "address"
        },
        {
          "internalType": "uint256",
          "name": "tokenId",
          "type": "uint256"
        }
      ],
      "name": "transferFrom",
      "outputs": [],
      "stateMutability": "nonpayable",
      "type": "function"
    },
    {
      "inputs": [
        {
          "internalType": "address",
          "name": "newOwner",
          "type": "address"
        }
      ],
      "name": "transferOwnership",
      "outputs": [],
      "stateMutability": "nonpayable",
      "type": "function"
    }
  ],
  "bytecode": "0x60806040523480156200001157600080fd5b50336040518060400160405280600781526020016646726163746c7360c81b8152506040518060400160405280600581526020016411949050d560da1b8152508160009081620000629190620001b3565b506001620000718282620001b3565b5050506001600160a01b038116620000a357604051631e4fbdf760e01b81526000600482015260240160405180910390fd5b620000ae81620000ba565b5060006008556200027f565b600780546001600160a01b038381166001600160a01b0319831681179093556040519116919082907f8be0079c531659141344cd1fd0a4f28419497f9722a3daafe3b4186f6b6457e090600090a35050565b634e487b7160e01b600052604160045260246000fd5b600181811c908216806200013757607f821691505b6020821081036200015857634e487b7160e01b600052602260045260246000fd5b50919050565b601f821115620001ae576000816000526020600020601f850160051c81016020861015620001895750805b601f850160051c820191505b81811015620001aa5782815560010162000195565b5050505b505050565b81516001600160401b03811115620001cf57620001cf6200010c565b620001e781620001e0845462000122565b846200015e565b602080601f8311600181146200021f5760008415620002065750858301515b600019600386901b1c1916600185901b178555620001aa565b600085815260208120601f198616915b8281101562000250578886015182559484019460019091019084016200022f565b50858210156200026f5787850151600019600388901b60f8161c191681555b5050505050600190811b01905550565b611b14806200028f6000396000f3fe608060405234801561001057600080fd5b50600436106101425760003560e01c8063715018a6116100b8578063c87b56dd1161007c578063c87b56dd146102a3578063d082e381146102b6578063d82bc5d9146102bf578063e985e9c5146102df578063f2fde38b146102f2578063fcc3f6b71461030557600080fd5b8063715018a61461025c5780638da5cb5b1461026457806395d89b4114610275578063a22cb4651461027d578063b88d4fde1461029057600080fd5b806323b872dd1161010a57806323b872dd146101e7578063256f4f9b146101fa57806342842e0e146102105780634ca8e07c146102235780636352211e1461023657806370a082311461024957600080fd5b806301ffc9a71461014757806306fdde031461016f578063081812fc14610184578063095ea7b3146101af578063192fc2f5146101c4575b600080fd5b61015a610155366004611400565b610325565b60405190151581526020015b60405180910390f35b610177610350565b604051610166919061146d565b610197610192366004611480565b6103e2565b6040516001600160a01b039091168152602001610166565b6101c26101bd3660046114b5565b61040b565b005b61015a6101d2366004611480565b600a6020526000908152604090205460ff1681565b6101c26101f53660046114df565b61041a565b610202600981565b604051908152602001610166565b6101c261021e3660046114df565b6104aa565b6101c2610231366004611586565b6104ca565b610197610244366004611480565b6106d3565b61020261025736600461161c565b6106de565b6101c2610726565b6007546001600160a01b0316610197565b61017761073a565b6101c261028b366004611637565b610749565b6101c261029e3660046116cb565b610754565b6101776102b1366004611480565b61076b565b61020260085481565b6102d26102cd366004611767565b61087c565b604051610166919061183c565b61015a6102ed366004611880565b610a2a565b6101c261030036600461161c565b610a58565b610202610313366004611480565b60096020526000908152604090205481565b60006001600160e01b03198216632483248360e11b148061034a575061034a82610a96565b92915050565b60606000805461035f906118b3565b80601f016020809104026020016040519081016040528092919081815260200182805461038b906118b3565b80156103d85780601f106103ad576101008083540402835291602001916103d8565b820191906000526020600020905b8154815290600101906020018083116103bb57829003601f168201915b5050505050905090565b60006103ed82610ae6565b506000828152600460205260409020546001600160a01b031661034a565b610416828233610b1f565b5050565b6001600160a01b03821661044957604051633250574960e11b8152600060048201526024015b60405180910390fd5b6000610456838333610b2c565b9050836001600160a01b0316816001600160a01b0316146104a4576040516364283d7b60e01b81526001600160a01b0380861660048301526024820184905282166044820152606401610440565b50505050565b6104c583838360405180602001604052806000815250610754565b505050565b600981511461051b5760405162461bcd60e51b815260206004820152601b60248201527f4d7573742070726f766964652039206672616374696f6e2049447300000000006044820152606401610440565b60006009600083600081518110610534576105346118ed565b6020026020010151815260200190815260200160002054905060005b600981101561066f57336001600160a01b0316610585848381518110610578576105786118ed565b60200260200101516106d3565b6001600160a01b0316146105db5760405162461bcd60e51b815260206004820152601c60248201527f596f7520646f206e6f74206f776e20616c6c206672616374696f6e73000000006044820152606401610440565b81600960008584815181106105f2576105f26118ed565b6020026020010151815260200190815260200160002054146106675760405162461bcd60e51b815260206004820152602860248201527f4672616374696f6e7320646f206e6f74206d61746368207468652073616d65206044820152671bdc9a59da5b985b60c21b6064820152608401610440565b600101610550565b5061068361067c826106d3565b3383610c25565b60005b60098110156106b9576106b18382815181106106a4576106a46118ed565b6020026020010151610cd5565b600101610686565b506000908152600a60205260409020805460ff1916905550565b600061034a82610ae6565b60006001600160a01b03821661070a576040516322718ad960e21b815260006004820152602401610440565b506001600160a01b031660009081526003602052604090205490565b61072e610d10565b6107386000610d3d565b565b60606001805461035f906118b3565b610416338383610d8f565b61075f84848461041a565b6104a484848484610e2e565b606061077682610ae6565b5060008281526006602052604081208054610790906118b3565b80601f01602080910402602001604051908101604052809291908181526020018280546107bc906118b3565b80156108095780601f106107de57610100808354040283529160200191610809565b820191906000526020600020905b8154815290600101906020018083116107ec57829003601f168201915b50505050509050600061082760408051602081019091526000815290565b90508051600003610839575092915050565b81511561086b578082604051602001610853929190611903565b60405160208183030381529060405292505050919050565b61087484610f57565b949350505050565b6060610886610d10565b60098251146108d75760405162461bcd60e51b815260206004820152601d60248201527f5468657265206d7573742062652039206672616374696f6e20555249730000006044820152606401610440565b60006108e560096001611948565b67ffffffffffffffff8111156108fd576108fd61151b565b604051908082528060200260200182016040528015610926578160200160208202803683370190505b506008549091506109373382610fcc565b6109418186610fe6565b8082600081518110610955576109556118ed565b6020908102919091010152600880549060006109708361195b565b919050555060005b6009811015610a205760085461098e3382610fcc565b6109b1818784815181106109a4576109a46118ed565b6020026020010151610fe6565b80846109be846001611948565b815181106109ce576109ce6118ed565b6020908102919091018101919091526000828152600982526040808220869055858252600a909252908120805460ff191660011790556008805491610a128361195b565b909155505050600101610978565b5090949350505050565b6001600160a01b03918216600090815260056020908152604080832093909416825291909152205460ff1690565b610a60610d10565b6001600160a01b038116610a8a57604051631e4fbdf760e01b815260006004820152602401610440565b610a9381610d3d565b50565b60006001600160e01b031982166380ac58cd60e01b1480610ac757506001600160e01b03198216635b5e139f60e01b145b8061034a57506301ffc9a760e01b6001600160e01b031983161461034a565b6000818152600260205260408120546001600160a01b03168061034a57604051637e27328960e01b815260048101849052602401610440565b6104c58383836001611036565b6000828152600260205260408120546001600160a01b0390811690831615610b5957610b5981848661113c565b6001600160a01b03811615610b9757610b76600085600080611036565b6001600160a01b038116600090815260036020526040902080546000190190555b6001600160a01b03851615610bc6576001600160a01b0385166000908152600360205260409020805460010190555b60008481526002602052604080822080546001600160a01b0319166001600160a01b0389811691821790925591518793918516917fddf252ad1be2c89b69c2b068fc378daa952ba7f163c4a11628f55a4df523b3ef91a4949350505050565b6001600160a01b038216610c4f57604051633250574960e11b815260006004820152602401610440565b6000610c5d83836000610b2c565b90506001600160a01b038116610c8957604051637e27328960e01b815260048101839052602401610440565b836001600160a01b0316816001600160a01b0316146104a4576040516364283d7b60e01b81526001600160a01b0380861660048301526024820184905282166044820152606401610440565b6000610ce46000836000610b2c565b90506001600160a01b03811661041657604051637e27328960e01b815260048101839052602401610440565b6007546001600160a01b031633146107385760405163118cdaa760e01b8152336004820152602401610440565b600780546001600160a01b038381166001600160a01b0319831681179093556040519116919082907f8be0079c531659141344cd1fd0a4f28419497f9722a3daafe3b4186f6b6457e090600090a35050565b6001600160a01b038216610dc157604051630b61174360e31b81526001600160a01b0383166004820152602401610440565b6001600160a01b03838116600081815260056020908152604080832094871680845294825291829020805460ff191686151590811790915591519182527f17307eab39ab6107e8899845ad3d59bd9653f200f220920489ca2b5937696c31910160405180910390a3505050565b6001600160a01b0383163b156104a457604051630a85bd0160e11b81526001600160a01b0384169063150b7a0290610e70903390889087908790600401611974565b6020604051808303816000875af1925050508015610eab575060408051601f3d908101601f19168201909252610ea8918101906119b1565b60015b610f14573d808015610ed9576040519150601f19603f3d011682016040523d82523d6000602084013e610ede565b606091505b508051600003610f0c57604051633250574960e11b81526001600160a01b0385166004820152602401610440565b805181602001fd5b6001600160e01b03198116630a85bd0160e11b14610f5057604051633250574960e11b81526001600160a01b0385166004820152602401610440565b5050505050565b6060610f6282610ae6565b506000610f7a60408051602081019091526000815290565b90506000815111610f9a5760405180602001604052806000815250610fc5565b80610fa4846111a0565b604051602001610fb5929190611903565b6040516020818303038152906040525b9392505050565b610416828260405180602001604052806000815250611233565b6000828152600660205260409020610ffe8282611a1e565b506040518281527ff8e1a15aba9398e019f0b49df1a4fde98ee17ae345cb5f6b5e2c27f5033e8ce79060200160405180910390a15050565b808061104a57506001600160a01b03821615155b1561110c57600061105a84610ae6565b90506001600160a01b038316158015906110865750826001600160a01b0316816001600160a01b031614155b801561109957506110978184610a2a565b155b156110c25760405163a9fbf51f60e01b81526001600160a01b0384166004820152602401610440565b811561110a5783856001600160a01b0316826001600160a01b03167f8c5be1e5ebec7d5bd14f71427d1e84f3dd0314c0f7b2291e5b200ac8c7c3b92560405160405180910390a45b505b5050600090815260046020526040902080546001600160a01b0319166001600160a01b0392909216919091179055565b61114783838361124a565b6104c5576001600160a01b03831661117557604051637e27328960e01b815260048101829052602401610440565b60405163177e802f60e01b81526001600160a01b038316600482015260248101829052604401610440565b606060006111ad836112ad565b600101905060008167ffffffffffffffff8111156111cd576111cd61151b565b6040519080825280601f01601f1916602001820160405280156111f7576020820181803683370190505b5090508181016020015b600019016f181899199a1a9b1b9c1cb0b131b232b360811b600a86061a8153600a850494508461120157509392505050565b61123d8383611385565b6104c56000848484610e2e565b60006001600160a01b038316158015906108745750826001600160a01b0316846001600160a01b0316148061128457506112848484610a2a565b806108745750506000908152600460205260409020546001600160a01b03908116911614919050565b60008072184f03e93ff9f4daa797ed6e38ed64bf6a1f0160401b83106112ec5772184f03e93ff9f4daa797ed6e38ed64bf6a1f0160401b830492506040015b6d04ee2d6d415b85acef81000000008310611318576d04ee2d6d415b85acef8100000000830492506020015b662386f26fc10000831061133657662386f26fc10000830492506010015b6305f5e100831061134e576305f5e100830492506008015b612710831061136257612710830492506004015b60648310611374576064830492506002015b600a831061034a5760010192915050565b6001600160a01b0382166113af57604051633250574960e11b815260006004820152602401610440565b60006113bd83836000610b2c565b90506001600160a01b038116156104c5576040516339e3563760e11b815260006004820152602401610440565b6001600160e01b031981168114610a9357600080fd5b60006020828403121561141257600080fd5b8135610fc5816113ea565b60005b83811015611438578181015183820152602001611420565b50506000910152565b6000815180845261145981602086016020860161141d565b601f01601f19169290920160200192915050565b602081526000610fc56020830184611441565b60006020828403121561149257600080fd5b5035919050565b80356001600160a01b03811681146114b057600080fd5b919050565b600080604083850312156114c857600080fd5b6114d183611499565b946020939093013593505050565b6000806000606084860312156114f457600080fd5b6114fd84611499565b925061150b60208501611499565b9150604084013590509250925092565b634e487b7160e01b600052604160045260246000fd5b604051601f8201601f1916810167ffffffffffffffff8111828210171561155a5761155a61151b565b604052919050565b600067ffffffffffffffff82111561157c5761157c61151b565b5060051b60200190565b6000602080838503121561159957600080fd5b823567ffffffffffffffff8111156115b057600080fd5b8301601f810185136115c157600080fd5b80356115d46115cf82611562565b611531565b81815260059190911b820183019083810190878311156115f357600080fd5b928401925b82841015611611578335825292840192908401906115f8565b979650505050505050565b60006020828403121561162e57600080fd5b610fc582611499565b6000806040838503121561164a57600080fd5b61165383611499565b91506020830135801515811461166857600080fd5b809150509250929050565b600067ffffffffffffffff83111561168d5761168d61151b565b6116a0601f8401601f1916602001611531565b90508281528383830111156116b457600080fd5b828260208301376000602084830101529392505050565b600080600080608085870312156116e157600080fd5b6116ea85611499565b93506116f860208601611499565b925060408501359150606085013567ffffffffffffffff81111561171b57600080fd5b8501601f8101871361172c57600080fd5b61173b87823560208401611673565b91505092959194509250565b600082601f83011261175857600080fd5b610fc583833560208501611673565b6000806040838503121561177a57600080fd5b823567ffffffffffffffff8082111561179257600080fd5b61179e86838701611747565b93506020915081850135818111156117b557600080fd5b8501601f810187136117c657600080fd5b80356117d46115cf82611562565b81815260059190911b820184019084810190898311156117f357600080fd5b8584015b8381101561182b5780358681111561180f5760008081fd5b61181d8c8983890101611747565b8452509186019186016117f7565b508096505050505050509250929050565b6020808252825182820181905260009190848201906040850190845b8181101561187457835183529284019291840191600101611858565b50909695505050505050565b6000806040838503121561189357600080fd5b61189c83611499565b91506118aa60208401611499565b90509250929050565b600181811c908216806118c757607f821691505b6020821081036118e757634e487b7160e01b600052602260045260246000fd5b50919050565b634e487b7160e01b600052603260045260246000fd5b6000835161191581846020880161141d565b83519083019061192981836020880161141d565b01949350505050565b634e487b7160e01b600052601160045260246000fd5b8082018082111561034a5761034a611932565b60006001820161196d5761196d611932565b5060010190565b6001600160a01b03858116825284166020820152604081018390526080606082018190526000906119a790830184611441565b9695505050505050565b6000602082840312156119c357600080fd5b8151610fc5816113ea565b601f8211156104c5576000816000526020600020601f850160051c810160208610156119f75750805b601f850160051c820191505b81811015611a1657828155600101611a03565b505050505050565b815167ffffffffffffffff811115611a3857611a3861151b565b611a4c81611a4684546118b3565b846119ce565b602080601f831160018114611a815760008415611a695750858301515b600019600386901b1c1916600185901b178555611a16565b600085815260208120601f198616915b82811015611ab057888601518255948401946001909101908401611a91565b5085821015611ace5787850151600019600388901b60f8161c191681555b5050505050600190811b0190555056fea2646970667358221220c92e13d6672286f43c462cd5c0cbb86ee873d80c55301a26649851d0de22437b64736f6c63430008180033",
  "linkReferences": {},
  "deployedLinkReferences": {}
}